:020000040800F2
:1000000000000120C50D0008190D0008210D000891
:10001000290D0008310D0008390D0008000000000E
:10002000000000000000000000000000410D00087A
:100030004F0D0008000000005D0D00086B0D00086A
:10004000150E0008150E0008150E0008150E000804
:10005000150E0008150E0008150E0008150E0008F4
:10006000150E0008150E0008150E0008150E0008E4
:10007000150E0008150E0008150E0008150E0008D4
:10008000150E0008150E0008150E0008150E0008C4
:10009000150E0008150E0008150E0008150E0008B4
:1000A000150E0008150E0008150E0008150E0008A4
:1000B000790D0008150E0008150E0008150E000831
:1000C000150E0008150E0008150E0008150E000884
:1000D000150E00088D0D0008150E0008150E0008FD
:1000E000150E0008150E0008150E0008150E000864
:1000F000150E0008150E0008150E0008150E000854
:10010000150E00080000000000000000150E000899
:10011000150E0008150E0008150E0008150E000833
:10012000150E0008150E0008150E0008150E000823
:10013000150E0008150E0008000000000000000069
:10014000150E0008150E0008150E0008000000002E
:10015000000000000000000000000000000000009F
:10016000150E0008150E0008150E0008150E0008E3
:10017000150E0008150E0008150E0008150E0008D3
:10018000150E0008150E0008000000000000000019
:04019000150E000840
:1001940010B5054C237833B9044B13B10448AFF3BD
:1001A40000800123237010BD100000200000000017
:1001B4002C5A000808B5034B1BB103490348AFF39D
:1001C400008008BD00000000140000202C5A000824
:1001D40080B582B000AF78607B681B68B3F1804F54
:1001E40040F0DD808A4BB3F90030013B032B00F271
:1001F400D68001A252F823F00D0200086102000823
:10020400C10200082D030008824BB3F90030002B13
:100214001AD1002220214FF0904002F041FB00222D
:1002240040214FF0904002F03BFB002280214FF030
:10023400904002F035FB00224021774802F030FB69
:10024400744B01221A80AAE0012220214FF0904031
:1002540002F026FB6F4B00221A80A0E06D4BB3F92D
:100264000030002B1AD1002220214FF0904002F0E0
:1002740017FB002240214FF0904002F011FB0022B6
:1002840080214FF0904002F00BFB00224021624895
:1002940002F006FB5F4B01221A8080E0012220213C
:1002A4004FF0904002F0FCFA012240214FF09040C0
:1002B40002F0F6FA574B00221A8070E0554BB3F95E
:1002C4000030002B1AD1002220214FF0904002F080
:1002D400E7FA002240214FF0904002F0E1FA0022B8
:1002E40080214FF0904002F0DBFA002240214A487E
:1002F40002F0D6FA474B01221A8050E00122202155
:100304004FF0904002F0CCFA012240214FF090408F
:1003140002F0C6FA012280214FF0904002F0C0FAA8
:100324003C4B00221A803AE03A4BB3F90030002BE0
:100334001AD1002220214FF0904002F0B1FA00229D
:1003440040214FF0904002F0ABFA002280214FF0A0
:10035400904002F0A5FA002240212F4802F0A0FAB2
:100364002C4B01221A8019E0012220214FF09040E9
:1003740002F096FA012240214FF0904002F090FAE8
:10038400012280214FF0904002F08AFA012240219C
:10039400214802F085FA1F4B00221A8000BF7B68B7
:1003A4001B681E4A93422FD100211D4801F0DAFF39
:1003B4001C4B1B8800220021194801F0AEFF1A4B88
:1003C400B3F90030194AB2F9002093FBF2F101FBB2
:1003D40002F29B1A002B17D1154BB3F90030002BF6
:1003E40007D1104B4FF400621A80114B01221A807E
:1003F4000AE00F4BB3F90030012B05D1094B002261
:100404001A800B4B00221A8000BF0837BD4680BDFE
:10041400B4010020B601002000040048002C014073
:100424007C000020B2010020020000200000002017
:10043400B801002080B483B000AF78607B68064ABE
:10044400934202D1054B01221A8000BF0C37BD46EE
:100454005DF8047B704700BF28010020B401002030
:1004640080B584B000AF00F0D5FC00F0F9F800F0DE
:10047400C9FA00F0CBF900F059F900F045FA00F0A0
:1004840091FA00F0EDF96C4803F0CCFE6B4B1B883D
:1004940001339AB2694B1A80684B1B88B3F57A6FA3
:1004A40002D9664B00221A80654800F037FF6421A8
:1004B400634801F049F8624801F048F903469AB2EA
:1004C400604B1A805F4B1A885F4B1B6811465F4A6A
:1004D40042F823105C4B1B6801335B4A13605A4B90
:1004E4001B68642B6CD10023BB600023FB6053E0CA
:1004F400554B1B68554A52F82320BB689A4205DDC8
:10050400514B1B68514A52F82330BB604E4B1B6859
:100514004E4A52F82330092B19DC4D4BB3F9003005
:10052400002B14D1484B1B68013B484A52F8233036
:100534000A2B0CDD464BB3F900309BB201339BB25E
:100544001AB2434B1A80404B1B687B6021E03E4B40
:100554001B683E4A52F823300A2B1ADD3C4BB3F990
:100564000030012B15D1384B1B68013B374A52F838
:100574002330092B0DDC364BB3F900309BB2013329
:100584009BB21AB2324B1A802F4B1A687B68D31A6B
:100594007B60FB680133FB60FB68622BA8DD2C4B9E
:1005A40000221A80BB682B4A13607B681AB22A4B5C
:1005B4001A80254B00221A604FF47A7000F090FCE8
:1005C400244B1B68002B08DD224B1B68B3F57A7F94
:1005D40003DC224B01221A802AE01E4B1B68B3F570
:1005E4007A7F08DD1B4B1B68B3F5FA6F03DC1B4BEA
:1005F40002221A801CE0174B1B68B3F5FA6F09DD61
:10060400144B1B6840F6B832934203DC134B0322AD
:100614001A800DE00F4B1B6840F6B832934207DD99
:100624000C4B1B68B3F57A6F02DC0C4B04221A8066
:100634000A2000F055FC29E7DC000020B20100206C
:100644002C000020B00100204C030020BC0100203D
:10065400500300205403002000000020B4010020B7
:1006640080B5A6B000AF07F1700328220021184618
:1006740005F0ADF907F15C0300221A605A609A6034
:10068400DA601A613B1D58220021184605F09FF9D3
:1006940002233B670123FB671023C7F88030022342
:1006A400C7F888304FF40043C7F88C300023C7F8EC
:1006B40090300023C7F8943007F17003184602F015
:1006C40007F90346002B01D000F0FCF90F23FB656A
:1006D40000233B6600237B660023BB660023FB6686
:1006E40007F15C030021184603F016F90346002BBA
:1006F40001D000F0E7F90C4B7B600023FB604FF462
:100704008873FB620023BB630023FB633B1D184615
:1007140003F014FB0346002B01D000F0D3F900BF13
:100724009837BD4680BD00BF8110100080B58AB0E7
:1007340000AF07F11C0300221A605A609A603B1D47
:1007440000221A605A609A60DA601A615A612E4B6C
:100754004FF0A0421A602C4B00225A602A4B002210
:100764009A60294B00221A61274B00225A76264BA5
:10077400002283F82020244B0022DA62224B01223B
:100784009A62214B0022DA601F4B0122DA611E4B70
:10079400002283F830201C4B04225A611A4B002299
:1007A4001A76194B00225A63174800F0BDFB034622
:1007B400002B01D000F086F90023FB6107F11C0334
:1007C4001946114801F0BAFA0346002B01D000F093
:1007D40079F901237B600123BB6000233B6104237F
:1007E400FB6000237B610023BB613B1D1946064867
:1007F40000F0BAFF0346002B01D000F063F900BFFC
:100804002837BD4680BD00BF2C00002080B584B0D1
:1008140000AF3B1D00221A605A609A600E4B0F4ACB
:100824001A600D4801F057FD0346002B01D000F07B
:1008340049F900237B600023BB603B1D002219465D
:10084400054801F0DAFD0346002B01D000F03AF927
:1008540000BF1037BD4680BD7C00002000740040FE
:1008640080B588B000AF07F1100300221A605A6007
:100874009A60DA603B1D00221A605A609A60204B2D
:10088400204A1A601E4B4FF434725A601C4B0022EB
:100894009A601B4B4FF6E852DA60194B00221A613A
:1008A400174B00225A61164B00229A61144803F038
:1008B40061FC0346002B01D000F004F94FF480538F
:1008C4003B6107F1100319460D4803F01DFE034672
:1008D400002B01D000F0F6F800237B600023BB60FE
:1008E4000023FB603B1D1946054804F043F803460A
:1008F400002B01D000F0E6F800BF2037BD4680BDD4
:1009040090000020002C014080B588B000AF07F1B2
:10091400100300221A605A609A60DA603B1D0022BC
:100924001A605A609A601E4B4FF080421A601C4B4A
:1009340048225A601A4B00229A60194B4CF25032EA
:10094400DA60174B00221A61154B00229A61144891
:1009540003F010FC0346002B01D000F0B3F84FF471
:1009640080533B6107F1100319460D4803F0CCFD99
:100974000346002B01D000F0A5F800237B60002380
:10098400FB603B1D1946064803F0F4FF0346002BA9
:1009940001D000F097F800BF2037BD4680BD00BFEE
:1009A400DC00002080B500AF144B154A1A60134BCD
:1009B4004FF416525A60114B00229A600F4B0022DA
:1009C400DA600E4B00221A610C4B0C225A610B4B5D
:1009D40000229A61094B0022DA61084B00221A6254
:1009E400064B00225A62054804F06EF80346002BB9
:1009F40001D000F067F800BF80BD00BF28010020CF
:100A04000038014080B588B000AF07F10C03002224
:100A14001A605A609A60DA601A61284B5B69274A47
:100A240043F400335361254B5B6903F40033BB602B
:100A3400BB68224B5B69214A43F4002353611F4B7B
:100A44005B6903F400237B607B681C4B5B691B4A76
:100A540043F480235361194B5B6903F480233B60A7
:100A64003B680022E4214FF0904001F019FF00227E
:100A74004021134801F014FFE423FB6001233B6190
:100A840000237B610023BB6107F10C0319464FF07F
:100A9400904001F07BFD4023FB6001233B61002378
:100AA4007B610023BB6107F10C031946044801F084
:100AB4006DFD00BF2037BD4680BD00BF0010024061
:100AC4000004004880B400AF72B600BF00BFFDE769
:100AD40080B483B000AF0F4B9B690E4A43F001030F
:100AE40093610C4B9B6903F001037B607B68094BAA
:100AF400DB69084A43F08053D361064BDB6903F09A
:100B040080533B603B6800BF0C37BD465DF8047BF7
:100B1400704700BF0010024080B58AB000AF786013
:100B240007F1140300221A605A609A60DA601A61AD
:100B34007B681B68B3F1A04F24D1144B5B69134A43
:100B440043F080535361114B5B6903F080533B6165
:100B54003B690E4B5B690D4A43F4003353610B4B05
:100B64005B6903F40033FB60FB6801237B610323AF
:100B7400BB610023FB6107F1140319464FF0904059
:100B840001F004FD00BF2837BD4680BD00100240BF
:100B940080B58AB000AF786007F1140300221A60B0
:100BA4005A609A60DA601A617B681B68154A93423E
:100BB40024D1154BDB69144A43F00053D361124B23
:100BC400DB6903F000533B613B690F4B5B690E4AE1
:100BD40043F4003353610C4B5B6903F40033FB6053
:100BE400FB6810237B610323BB610023FB6107F1D6
:100BF400140319464FF0904001F0C8FC00BF283799
:100C0400BD4680BD007400400010024080B584B031
:100C140000AF78607B681B68164A93420CD1164B70
:100C24009B69154A43F400639361134B9B6903F476
:100C34000063FB60FB6818E07B681B68B3F1804FBE
:100C440013D10D4BDB690C4A43F00103D3610A4B0A
:100C5400DB6903F00103BB60BB68002200211C2098
:100C640001F003FB1C2001F01CFB00BF1037BD4644
:100C740080BD00BF002C01400010024080B58AB046
:100C840000AF786007F1140300221A605A609A607A
:100C9400DA601A617B681B681B4A93422FD11B4B95
:100CA4009B691A4A43F480439361184B9B6903F48C
:100CB40080433B613B69154B5B69144A43F4002351
:100CC4005361124B5B6903F40023FB60FB68302320
:100CD4007B610223BB610023FB6103233B62072387
:100CE4007B6207F114031946094801F04FFC002206
:100CF4000021252001F0B9FA252001F0D2FA00BF25
:100D04002837BD4680BD00BF0038014000100240B6
:100D14000008004880B400AF00BFFDE780B400AF16
:100D240000BFFDE780B400AF00BFFDE780B400AFB3
:100D340000BFFDE780B400AF00BFFDE780B400AFA3
:100D440000BFBD465DF8047B704780B400AF00BFB0
:100D5400BD465DF8047B704780B400AF00BFBD465C
:100D64005DF8047B704780B500AF00F099F800BFD0
:100D740080BD000080B500AF024803F0C3FA00BF95
:100D840080BD00BFDC00002080B500AF024803F046
:100D9400E9FE00BF80BD00BF2801002080B400AF81
:100DA400064BD3F88830054A43F47003C2F8883000
:100DB40000BFBD465DF8047B704700BF00ED00E056
:100DC400DFF834D0FFF7EAFF0C480D490D4A002341
:100DD40002E0D458C4500433C4188C42F9D30A4AEC
:100DE4000A4C002301E013600432A242FBD304F056
:100DF400F7FDFFF735FBFEE70000012000000020AF
:100E040010000020845A0008100000205C03002019
:100E1400FEE7000080B500AF084B1B68074A43F0AB
:100E240010031360032001F015FA0F2000F008F8F6
:100E3400FFF74EFE0023184680BD00BF002002408D
:100E440080B582B000AF7860124B1A68124B1B78E1
:100E540019464FF47A73B3FBF1F3B2FBF3F318467C
:100E640001F02DFA0346002B01D001230EE07B682C
:100E74000F2B0AD8002279684FF0FF3001F0F5F902
:100E8400064A7B681360002300E0012318460837F4
:100E9400BD4680BD040000200C0000200800002096
:100EA40080B400AF064B1B781A46064B1B681344EC
:100EB400044A136000BFBD465DF8047B704700BF61
:100EC4000C0000205803002080B400AF034B1B68C3
:100ED4001846BD465DF8047B704700BF58030020E8
:100EE40080B584B000AF7860FFF7EEFFB8607B6830
:100EF400FB60FB68B3F1FF3F05D00A4B1B781A4631
:100F0400FB681344FB6000BFFFF7DEFF0246BB68CB
:100F1400D31AFA689A42F7D800BF00BF1037BD460B
:100F240080BD00BF0C00002080B59AB000AF78608F
:100F3400002387F8673000233B660023BB607B688F
:100F4400002B01D10123E3E17B681B69002B7B6843
:100F54001B6C03F01003002B76D17B681B6C002BF9
:100F640052D17B6800225A647B680022DA647B6871
:100F740000229A647B68002283F83C207868FFF79B
:100F8400CBFD7B681B689B6803F08053002B3BD12F
:100F9400786801F029F8034687F867307B681B6C92
:100FA40003F01003002B2FD197F86730002B2BD1BF
:100FB4007B681B6C23F4885323F0020343F0020282
:100FC4007B681A647B681B689A687B681B6822F0DC
:100FD40040529A607B681B689A687B681B6842F081
:100FE40080529A60924B1B68924AA2FB03239A0C8C
:100FF40013469B0013445B00BB6002E0BB68013BEB
:10100400BB60BB68002BF9D17B681B689B6803F04D
:101014008053002B07D07B681B689B6803F0005348
:10102400B3F1005F10D17B681B6C23F0120343F013
:1010340010027B681A647B685B6C43F001027B6876
:101044005A64012387F867307B681B6C03F0100334
:10105400002B40F0508197F86730002B40F04B8113
:101064007B681B689B6803F00403002B40F04381FA
:101074007B681B6C23F4817343F002027B681A645F
:101084007B681B68B3F1A04F04D07B681B686A4A75
:10109400934201D1694B00E0694BFB657B681B6897
:1010A400B3F1A04F02D1644BFB601AE07B681B686C
:1010B400614A934203D14FF0A043FB6011E07B6887
:1010C4001B68604A934202D15F4BFB6009E07B6876
:1010D4001B685D4A934202D15A4BFB6001E0002336
:1010E400FB607B681B689B6803F00303012B08D13A
:1010F4007B681B681B6803F00103012B01D10123EA
:1011040000E00023002B1CD1FB68002B10D0FB68EF
:101114009B6803F00303012B07D1FB681B6803F0F2
:101124000103012B01D1012300E00023002B08D18E
:10113400FB6D9B6823F440327B685B681A43FB6D4C
:101144009A607B685B7E5B037A68526B012A02D0EB
:101154004FF4805200E000221A437B68DB681A4394
:101164007B689B6813433A6E13433B667B6893F832
:101174002030012B1BD17B685B7E002B09D17B685F
:101184005B6A013B5A043B6E134343F480333B6672
:101194000DE07B681B6C23F0220343F020027B6884
:1011A4001A647B685B6C43F001027B685A647B6859
:1011B4009B6A012B54D07B681B68224A934204D05B
:1011C4007B681B68204A934240D17B689B6AB3F5D5
:1011D400307F2AD07B689B6AB3F5807F22D07B68FE
:1011E4009B6AB3F5E07F1AD07B689B6AB3F58A5F8C
:1011F40012D07B689B6AB3F5845F0AD07B689B6AD4
:10120400B3F5865F02D07B689B6A23E04FF4C0731A
:1012140020E04FF4A0731DE04FF470731AE04FF414
:10122400807317E04FF4307314E04FF4E07311E06F
:101234000400002083DE1B43000100500003005023
:101244000007005000040050000500507B689B6AB2
:1012540023F480537A68D26A13433A6E13433B668D
:101264007B681B689B6803F00C03002B14D17B681C
:101274001B68DB687A68126823F4804323F0020356
:10128400D3607B681B7E9A037B6893F830305B00E5
:1012940013433A6E13433B667B681B68DA681E4B44
:1012A40013407A681268396E0B43D3607B681B69FC
:1012B400012B0CD17B681B681B6B23F00F017B682F
:1012C400DB695A1E7B681B680A431A6307E07B6864
:1012D4001B681A6B7B681B6822F00F021A637B6819
:1012E40000225A647B681B6C23F0030343F0010261
:1012F4007B681A640AE07B681B6C23F0120343F0DA
:1013040010027B681A64012387F8673097F8673006
:1013140018466837BD4680BD07C0F0FF80B584B06D
:1013240000AF78600023FB737B681B689B6803F045
:101334000403002B40F0F9807B6893F83C30012BC8
:1013440001D10223F4E07B68012283F83C20786811
:1013540000F0E6FD0346FB73FB7B002B40F0E080CE
:101364007B681B6C23F4706323F0010343F48072E5
:101374007B681A647B681B68B3F1A04F04D07B6858
:101384001B686D4A934206D16C4B9B6803F01F03A4
:10139400002B10D005E06A4B9B6803F01F03002B61
:1013A40009D07B681B68B3F1A04F04D07B681B682D
:1013B400644A934215D17B681B6C23F480127B68CA
:1013C4001A647B681B68DB6803F00073002B36D05B
:1013D4007B681B6C23F4405343F480527B681A648B
:1013E4002DE07B681B6C43F480127B681A647B6875
:1013F4001B68B3F1A04F04D07B681B684E4A93422C
:101404000AD14FF0A043DB6803F00073002B14BF34
:1014140001230023DBB208E04A4BDB6803F00073CE
:10142400002B14BF01230023DBB2002B07D07B6801
:101434001B6C23F4405343F480527B681A647B682A
:101444001B6C03F48053B3F5805F06D17B685B6C3F
:1014540023F006027B685A6402E07B6800225A6427
:101464007B68002283F83C207B681B681C221A607E
:101474007B681B68B3F1A04F04D07B681B682E4ABD
:10148400934206D12D4B9B6803F01F03002B3ED0E3
:1014940005E02B4B9B6803F01F03002B37D07B68C0
:1014A4001B68B3F1A04F04D07B681B68224A9342A7
:1014B40006D1224B9B6803F01F03052B27D005E0C0
:1014C4001F4B9B6803F01F03052B20D07B681B6810
:1014D400B3F1A04F04D07B681B68174A934206D12E
:1014E400164B9B6803F01F03092B10D005E0144B27
:1014F4009B6803F01F03092B09D07B681B68B3F1B9
:10150400A04F04D07B681B680E4A93420FD17B68BE
:101514001B689A687B681B6842F004029A6006E0C4
:101524007B68002283F83C2001E00223FB73FB7BF1
:1015340018461037BD4680BD00010050000300501E
:10154400000700500004005080B586B000AF7860FA
:10155400396000233B617B685B69082B02D1082357
:101564007B613AE07B681B68B3F1A04F04D07B68D1
:101574001B68724A934201D1714B00E0714BFB60CE
:10158400FB689B6803F01F03002B12D17B681B6868
:10159400DB6803F00103012B1DD17B681B6C43F056
:1015A40020027B681A647B68002283F83C200123B4
:1015B400BFE0FB689B6803F44043002B0BD07B68BF
:1015C4001B6C43F020027B681A647B68002283F85A
:1015D4003C200123ADE00C237B617B681B68B3F1E5
:1015E400A04F04D07B681B68544A934206D1544BE5
:1015F4009B6803F01F03002B10D005E0514B9B6840
:1016040003F01F03002B09D07B681B68B3F1A04FC4
:1016140004D07B681B684C4A934204D17B681B68E6
:10162400DB683B610FE07B681B68B3F1A04F04D01B
:101634007B681B68414A934202D14FF0A04300E00B
:10164400414BDB683B61FFF73FFCB86021E03B683E
:10165400B3F1FF3F1DD03B68002B07D0FFF734FCEC
:101664000246BB68D31A3A689A4212D27B681B6856
:101674001A687B691340002B0BD17B681B6C43F009
:1016840004027B681A647B68002283F83C200323ED
:101694004FE07B681B681A687B691340002BD6D027
:1016A4007B681B6C43F400727B681A647B681B685C
:1016B400DB6803F44063002B31D13B6903F400532E
:1016C400002B2CD17B681B681B6803F00803082BD4
:1016D40025D17B681B689B6803F00403002B12D19F
:1016E4007B681B6C23F480727B681A647B681B6CB8
:1016F40003F48053002B12D17B681B6C43F001026E
:101704007B681A640BE07B681B6C43F020027B68E7
:101714001A647B685B6C43F001027B685A643B6922
:1017240003F48043002B03D17B681B687A691A6039
:10173400002318461837BD4680BD00BF0001005085
:1017440000030050000700500004005080B483B030
:1017540000AF78607B681B681B6C18460C37BD466D
:101764005DF8047B7047000080B49BB000AF7860E4
:101774003960002387F867300023BB607B6893F8E7
:101784003C30012B01D10223C8E27B68012283F89B
:101794003C207B681B689B6803F00403002B40F02B
:1017A400AC823B685B68042B1CD87B681B68196B94
:1017B4003B685A6813465B0013445B001A461F23B8
:1017C4009340DB4319403B6818683B685A681346EA
:1017D4005B0013445B0000FA03F27B681B680A4356
:1017E4001A6363E03B685B68092B1ED87B681B683F
:1017F400596B3B685A6813465B0013445B001E3BFD
:101804001F2202FA03F3DB4319403B6818683B6864
:101814005A6813465B0013445B001E3B00FA03F254
:101824007B681B680A435A6340E03B685B680E2B85
:101834001ED87B681B68996B3B685A6813465B002B
:1018440013445B003C3B1F2202FA03F3DB431940C1
:101854003B6818683B685A6813465B0013445B0096
:101864003C3B00FA03F27B681B680A439A631DE061
:101874007B681B68D96B3B685A6813465B0013444A
:101884005B005A3B1F2202FA03F3DB4319403B6817
:1018940018683B685A6813465B0013445B005A3B64
:1018A40000FA03F27B681B680A43DA637B681B68EF
:1018B4009B6803F00C03002B40F0E5803B681B6839
:1018C400092B1CD97B681B6899693B681A68134605
:1018D4005B0013441E3B072202FA03F3DB43194067
:1018E4003B6898683B681A6813465B0013441E3BC8
:1018F40000FA03F27B681B680A439A6119E07B686B
:101904001B6859693B681A6813465B001344072235
:1019140002FA03F3DB4319403B6898683B681A6892
:1019240013465B00134400FA03F27B681B680A4306
:101934005A613B685A697B681B68DB68DB0803F003
:1019440003035B0002FA03F33B663B681B69013B3C
:10195400032B4FD801A252F823F000BF71190008DD
:1019640093190008B5190008D71900087B681B688B
:101974001A6E994B13403A68126891063A6E0A43FC
:101984001A437B681B6842F000421A667BE07B685E
:101994001B685A6E904B13403A68126891063A6E6F
:1019A4000A431A437B681B6842F000425A666AE0A5
:1019B4007B681B689A6E884B13403A6812689106DC
:1019C4003A6E0A431A437B681B6842F000429A66E7
:1019D40059E07B681B68DA6E7F4B13403A681268E3
:1019E40091063A6E0A431A437B681B6842F0004230
:1019F400DA6648E07B681B681B6E03F0F8423B68BC
:101A04001B689B069A4207D17B681B681A6E7B6829
:101A14001B6822F000421A667B681B685B6E03F049
:101A2400F8423B681B689B069A4207D17B681B6897
:101A34005A6E7B681B6822F000425A667B681B68FA
:101A44009B6E03F0F8423B681B689B069A4207D1E1
:101A54007B681B689A6E7B681B6822F000429A665A
:101A64007B681B68DB6E03F0F8423B681B689B06CF
:101A74009A4207D17B681B68DA6E7B681B6822F088
:101A84000042DA6600BF7B681B689B6803F00303AF
:101A9400012B08D17B681B681B6803F00103012B31
:101AA40001D1012300E00023002B40F031813B6889
:101AB400DB68012B0FD07B681B68D3F8B0103B6840
:101AC4001B68012202FA03F3DA437B681B680A40AD
:101AD400C3F8B02049E07B681B68D3F8B0103B68BA
:101AE4001B6801229A407B681B680A43C3F8B02034
:101AF4003B681B68092B1CD97B681B6899693B6888
:101B04001A6813465B0013441B3B072202FA03F3D3
:101B1400DB4319403B6898683B681A6813465B00CE
:101B240013441B3B00FA03F27B681B680A439A6167
:101B34001BE07B681B6859693B681B685A1C134689
:101B44005B001344072202FA03F3DB4319403B68AA
:101B540098683B681B685A1C13465B00134400FAE0
:101B640003F27B681B680A435A617B681B68B3F104
:101B7400A04F04D07B681B68184A934201D1184BCC
:101B840000E0184BFB653B681B68102B05D1FB6D0F
:101B94009B6803F40003002B15D03B681B68112BD2
:101BA40005D1FB6D9B6803F08073002B0BD03B6861
:101BB4001B68122B40F0AC80FB6D9B6803F4800320
:101BC400002B40F0A5807B681B68B3F1A04F0BD1BC
:101BD400024BFB6023E000BF00F0FF8300010050D4
:101BE40000030050000700507B681B684E4A934274
:101BF40003D14FF0A043FB6011E07B681B684B4AA4
:101C0400934202D14A4BFB6009E07B681B68484A57
:101C1400934202D1454BFB6001E00023FB607B68EB
:101C24001B689B6803F00303012B08D17B681B68C6
:101C34001B6803F00103012B01D1012300E0002301
:101C4400002B50D1FB68002B10D0FB689B6803F07D
:101C54000303012B07D1FB681B6803F00103012B6D
:101C640001D1012300E00023002B3CD13B681B6819
:101C7400102B1DD17B681B68B3F1A04F18D1FB6DED
:101C84009B6843F40002FB6D9A602A4B1B682A4A46
:101C9400A2FB03239A0C13469B0013445B00BB6016
:101CA40002E0BB68013BBB60BB68002BF9D12EE0AE
:101CB4003B681B68112B0BD17B681B68B3F1A04FE9
:101CC40006D1FB6D9B6843F08072FB6D9A601EE049
:101CD4003B681B68122B1AD1FB6D9B6843F480028E
:101CE400FB6D9A6013E07B681B6C43F020027B68F9
:101CF4001A64012387F867300AE07B681B6C43F0A1
:101D040020027B681A64012387F8673000E000BF73
:101D14007B68002283F83C2097F8673018466C37BC
:101D2400BD465DF8047B704700010050000400507C
:101D3400000500500400002083DE1B4380B499B0EA
:101D440000AF78603960002387F85F307B681B68D8
:101D5400B3F1A04F02D16D4BBB601AE07B681B68E6
:101D64006A4A934203D14FF0A043BB6011E07B6801
:101D74001B68674A934202D1664BBB6009E07B68EB
:101D84001B68644A934202D1614BBB6001E00023AB
:101D9400BB60BB68002B01D10123B0E07B6893F8E2
:101DA4003C30012B01D10223A9E07B68012283F896
:101DB4003C207B681B689B6803F00403002B40F005
:101DC4008D80BB689B6803F00403002B40F0868081
:101DD4007B681B68B3F1A04F04D07B681B684B4A37
:101DE400934201D14C4B00E04C4BBB653B681B68F4
:101DF400002B40D0BB6D9B6823F460423B6859685C
:101E04007B6893F830305B030B431A43BB6D9A60D5
:101E14007B681B689B6803F00303012B08D17B6874
:101E24001B681B6803F00103012B01D1012300E0AF
:101E34000023002B5CD1BB689B6803F00303012BD8
:101E440007D1BB681B6803F00103012B01D10123F7
:101E540000E00023002B4BD1BB6D9B6823F471631E
:101E640023F00F033A6811683A6892680A431A43E8
:101E7400BB6D9A603CE0BB6D9B6823F46042BB6D14
:101E84009A607B681B689B6803F00303012B08D1ED
:101E94007B681B681B6803F00103012B01D101233C
:101EA40000E00023002B23D1BB689B6803F00303ED
:101EB400012B07D1BB681B6803F00103012B01D17F
:101EC400012300E00023002B12D1BB6D9B6823F497
:101ED400716323F00F03BA6D936009E07B681B6C98
:101EE40043F020027B681A64012387F85F3000E026
:101EF40000BF7B68002283F83C2097F85F301846C7
:101F04006437BD465DF8047B704700BF0001005094
:101F1400000400500005005000030050000700506A
:101F240080B584B000AF78600023FB607B681B68D9
:101F34009B6803F00303012B08D17B681B681B68B3
:101F440003F00103012B01D1012300E00023002B46
:101F540043D17B681B689A68224B1340002B0DD039
:101F64007B681B6C43F010027B681A647B685B6CB3
:101F740043F001027B685A6401232FE07B681B68ED
:101F84009A687B681B6842F001029A60FEF79CFF26
:101F9400F8601BE0FEF798FF0246FB68D31A022B99
:101FA40014D97B681B681B6803F00103012B0DD057
:101FB4007B681B6C43F010027B681A647B685B6C63
:101FC40043F001027B685A64012307E07B681B68C5
:101FD4001B6803F00103012BDCD1002318461037E2
:101FE400BD4680BD3F00008080B584B000AF7860FE
:101FF4000023FB607B681B689B6803F00303012BD1
:1020040008D17B681B681B6803F00103012B01D115
:10201400012300E00023002B47D07B681B689B68EA
:1020240003F00D03012B0FD17B681B689A687B6852
:102034001B6842F002029A607B681B6803221A60E4
:10204400FEF742FFF86029E07B681B6C43F0100246
:102054007B681A647B685B6C43F001027B685A649A
:10206400012323E0FEF730FF0246FB68D31A022B5C
:1020740014D97B681B689B6803F00103012B0DD105
:102084007B681B6C43F010027B681A647B685B6C92
:1020940043F001027B685A64012307E07B681B68F4
:1020A4009B6803F00103012BDCD000231846103792
:1020B400BD4680BD80B485B000AF78607B6803F016
:1020C4000703FB600C4BDB68BB60BA684FF6FF0389
:1020D4001340BB60FB681A02BB68134343F0BF6341
:1020E40043F40033BB60044ABB68D36000BF1437B9
:1020F400BD465DF8047B704700ED00E080B400AF9E
:10210400044BDB681B0A03F007031846BD465DF861
:10211400047B704700ED00E080B483B000AF034659
:10212400FB7197F90730002B0BDBFB7903F01F02DF
:10213400074997F907305B09012000FA02F241F8D8
:10214400232000BF0C37BD465DF8047B704700BFF9
:1021540000E100E080B483B000AF03463960FB7156
:1021640097F90730002B0ADB3B68DAB20C4997F980
:1021740007301201D2B20B4483F800230AE03B6813
:10218400DAB20849FB7903F00F03043B1201D2B21F
:102194000B441A7600BF0C37BD465DF8047B7047CC
:1021A40000E100E000ED00E080B489B000AFF86029
:1021B400B9607A60FB6803F00703FB61FB69C3F154
:1021C4000703042B28BF0423BB61FB690433062BDC
:1021D40002D9FB69033B00E000237B614FF0FF322F
:1021E400BB6902FA03F3DA43BB681A407B699A407D
:1021F4004FF0FF317B6901FA03F3D9437B680B404D
:10220400134318462437BD465DF8047B704700002D
:1022140080B582B000AF78607B68013BB3F1807F0A
:1022240001D301230FE00A4A7B68013B53600F216D
:102234004FF0FF30FFF78EFF054B00229A60044BEE
:1022440007221A60002318460837BD4680BD00BF28
:1022540010E000E080B582B000AF78607868FFF7E6
:1022640029FF00BF0837BD4680BD80B586B000AFEA
:102274000346B9607A60FB7300237B61FFF73EFF7E
:1022840078617A68B9687869FFF78EFF024697F932
:102294000F3011461846FFF75DFF00BF1837BD46E3
:1022A40080BD80B582B000AF0346FB7197F907305B
:1022B4001846FFF731FF00BF0837BD4680BD80B523
:1022C40082B000AF78607868FFF7A2FF0346184633
:1022D4000837BD4680BD80B582B000AF78607B68AA
:1022E400002B01D1012314E07B681B79DBB2002BA6
:1022F40005D17B6800225A717868FEF749FC7B6837
:1023040002221A717B6800221A617B6801221A7109
:10231400002318460837BD4680BD80B487B000AF9F
:10232400F860B9607A603B6000237B61FB681B68DE
:102334007B61BB68002B05D17A697B681344083341
:102344007B6104E07A697B68134414337B617B69A5
:102354001A463B681360002318461C37BD465DF8D7
:10236400047B704780B483B000AF786039607B68C9
:102374005B79012B01D1022339E07B6801225A7178
:102384007B6802221A717B681B68196801223B680A
:102394009A407B681B680A431A603B68002B0FD184
:1023A4007B681B681B6803F03C033C2B18D17B68DB
:1023B4001B685A687B681B6842F001025A600FE090
:1023C4007B681B681B6803F47013B3F5701F07D197
:1023D4007B681B685A687B681B6842F002025A607B
:1023E4007B6801221A717B6800225A710023184607
:1023F4000C37BD465DF8047B704780B487B000AFEE
:10240400F860B9607A6000237B6100233B61FB685C
:102414005B79012B01D1022336E0FB6801225A715A
:10242400FB6802221A71FB681B681B687B6140F61B
:10243400FE727B6802FA03F3DB437A6913407B6123
:10244400BB681A68BB685B6813433B613A697B6885
:1024540002FA03F37A6913437B61FB681B687A69A8
:102464001A60FB681B681968C0227B6802FA03F3D0
:10247400DA43FB681B680A401A60FB6801221A7180
:10248400FB6800225A71002318461C37BD465DF8CC
:10249400047B704780B483B000AF78607B68002B06
:1024A40001D101232EE07B6893F82130022B08D060
:1024B4007B6804229A637B68002283F8202001232E
:1024C40020E07B681B681A687B681B6822F00E0298
:1024D4001A607B681B681A687B681B6822F001021B
:1024E4001A607B681A6C7B68DB6B012101FA02F2CB
:1024F4005A607B68012283F821207B68002283F8DC
:102504002020002318460C37BD465DF8047B704735
:1025140080B584B000AF78600023FB737B6893F8C8
:102524002130022B05D07B6804229A630123FB73BC
:1025340027E07B681B681A687B681B6822F00E0220
:102544001A607B681B681A687B681B6822F00102AA
:102554001A607B681A6C7B68DB6B012101FA02F25A
:102564005A607B68012283F821207B68002283F86B
:1025740020207B685B6B002B03D07B685B6B7868E7
:102584009847FB7B18461037BD4680BD80B487B0A2
:1025940000AF7860396000237B6160E13B681A68B2
:1025A40001217B6901FA03F31340FB60FB68002BF4
:1025B40000F052813B685B6803F00303012B05D0F4
:1025C4003B685B6803F00303022B30D17B689B6894
:1025D4003B617B695B00032202FA03F3DB433A6944
:1025E40013403B613B68DA687B695B0002FA03F3E2
:1025F4003A6913433B617B683A699A607B685B681C
:102604003B6101227B6902FA03F3DB433A6913401D
:102614003B613B685B681B0903F001027B6902FABA
:1026240003F33A6913433B617B683A695A603B6838
:102634005B6803F00303032B17D07B68DB683B6103
:102644007B695B00032202FA03F3DB433A6913401C
:102654003B613B689A687B695B0002FA03F33A6961
:1026640013433B617B683A69DA603B685B6803F05B
:102674000303022B23D17B69DA087B68083253F801
:1026840022303B617B6903F007039B000F2202FAAF
:1026940003F3DB433A6913403B613B681A697B6986
:1026A40003F007039B0002FA03F33A6913433B6107
:1026B4007B69DA087B680832396943F822107B6841
:1026C4001B683B617B695B00032202FA03F3DB4373
:1026D4003A6913403B613B685B6803F003027B6922
:1026E4005B0002FA03F33A6913433B617B683A697E
:1026F4001A603B685B6803F44033002B00F0AC8045
:102704005E4B9B695D4A43F0010393615B4B9B699C
:1027140003F00103BB60BB68594A7B699B08023321
:1027240052F823303B617B6903F003039B000F22C3
:1027340002FA03F3DB433A6913403B617B68B3F16C
:10274400904F25D07B684F4A93421FD07B684E4AF6
:10275400934219D07B684D4A934213D07B684C4A0C
:1027640093420DD07B684B4A934207D07B684A4A18
:10277400934201D106230CE007230AE0052308E075
:10278400042306E0032304E0022302E0012300E023
:1027940000237A6902F00302920093403A691343DA
:1027A4003B6137497B699B0802333A6941F823202E
:1027B4003A4B9B683B61FB68DB433A6913403B61DE
:1027C4003B685B6803F48013002B03D03A69FB6811
:1027D40013433B61314A3B699360304BDB683B6197
:1027E400FB68DB433A6913403B613B685B6803F475
:1027F4000013002B03D03A69FB6813433B61274A5B
:102804003B69D360254B5B683B61FB68DB433A69FA
:1028140013403B613B685B6803F40033002B03D037
:102824003A69FB6813433B611C4A3B6953601B4B89
:102834001B683B61FB68DB433A6913403B613B68BF
:102844005B6803F48033002B03D03A69FB681343BD
:102854003B61124A3B6913607B6901337B613B68CE
:102864001A687B6922FA03F3002B7FF497AE00BF4A
:1028740000BF1C37BD465DF8047B70470010024062
:10288400000001400004004800080048000C004813
:1028940000100048001400480018004800040140DB
:1028A40080B483B000AF78600B467B8013467B70A6
:1028B4007B78002B03D07A887B689A6102E07A885F
:1028C4007B689A6200BF0C37BD465DF8047B704795
:1028D40080B5ADF5027D00AF07F50273A3F5017372
:1028E400186007F50273A3F501731B68002B02D16E
:1028F400012301F00AB807F50273A3F501731B68FD
:102904001B6803F00103002B00F06181AE4B5B6890
:1029140003F00C03042B0CD0AB4B5B6803F00C03EB
:10292400082B57D1A84B5B6803F4C033B3F5803F41
:1029340050D14FF40033C7F8F431D7F8F43193FA97
:10294400A3F3C7F8F031D7F8F031B3FA83F3DBB26D
:102954003F2B02D89C4B1B6815E04FF40033C7F89B
:10296400EC31D7F8EC3193FAA3F3C7F8E8314FF41C
:102974000033C7F8E431D7F8E43193FAA3F3C7F886
:10298400E031914B5B6A4FF40032C7F8DC21D7F891
:10299400DC2192FAA2F2C7F8D821D7F8D821B2FAEA
:1029A40082F2D2B242F02002D2B202F01F0201211E
:1029B40001FA02F21340002B00F0088107F50273BC
:1029C400A3F501731B685B68002B40F0FF800123B3
:1029D40000F09BBF07F50273A3F501731B685B68E6
:1029E400B3F5803F06D1784B1B68774A43F48033B4
:1029F400136036E007F50273A3F501731B685B6887
:102A0400002B0CD1704B1B686F4A23F48033136086
:102A14006D4B1B686C4A23F48023136021E007F597
:102A24000273A3F501731B685B68B3F5A02F0CD187
:102A3400654B1B68644A43F480231360624B1B6834
:102A4400614A43F4803313600BE05F4B1B685E4ABA
:102A540023F4803313605C4B1B685B4A23F48023AC
:102A6400136007F50273A3F501731B685B68002B01
:102A740054D0FEF729FAC7F800020AE0FEF724FA58
:102A84000246D7F80032D31A642B02D9032300F08C
:102A94003CBF4FF40033C7F8D431D7F8D43193FA9C
:102AA400A3F3C7F8D031D7F8D031B3FA83F3DBB24C
:102AB4003F2B02D8444B1B6815E04FF40033C7F892
:102AC400CC31D7F8CC3193FAA3F3C7F8C8314FF41B
:102AD4000033C7F8C431D7F8C43193FAA3F3C7F865
:102AE400C031394B5B6A4FF40032C7F8BC21D7F8C8
:102AF400BC2192FAA2F2C7F8B821D7F8B821B2FAE9
:102B040082F2D2B242F02002D2B202F01F020121BC
:102B140001FA02F21340002BB0D058E0FEF7D4F9CA
:102B2400C7F800020AE0FEF7CFF90246D7F80032F0
:102B3400D31A642B02D9032300F0E7BE4FF4003309
:102B4400C7F8B431D7F8B43193FAA3F3C7F8B03166
:102B5400D7F8B031B3FA83F3DBB23F2B02D81A4B68
:102B64001B6815E04FF40033C7F8AC31D7F8AC312B
:102B740093FAA3F3C7F8A8314FF40033C7F8A4318C
:102B8400D7F8A43193FAA3F3C7F8A0310E4B5B6ACC
:102B94004FF40032C7F89C21D7F89C2192FAA2F294
:102BA400C7F89821D7F89821B2FA82F2D2B242F04B
:102BB4002002D2B202F01F02012101FA02F21340F4
:102BC400002BB0D103E000BF0010024000BF07F5A6
:102BD4000273A3F501731B681B6803F00203002B47
:102BE40000F06D81CD4B5B6803F00C03002B0CD01F
:102BF400CA4B5B6803F00C03082B6ED1C74B5B68B0
:102C040003F4C033B3F5004F67D10223C7F89431FE
:102C1400D7F8943193FAA3F3C7F89031D7F89031E9
:102C2400B3FA83F3DBB23F2B02D8BC4B1B6813E02F
:102C34000223C7F88C31D7F88C3193FAA3F3C7F881
:102C440088310223C7F88431D7F8843193FAA3F387
:102C5400C7F88031B14B5B6A0222C7F87C21D7F8F0
:102C64007C2192FAA2F2C7F87821D7F87821B2FA37
:102C740082F2D2B242F02002D2B202F01F0201214B
:102C840001FA02F21340002B0AD007F50273A3F5F0
:102C940001731B68DB68012B02D0012300F035BEF1
:102CA4009E4B1B6823F0F80207F50273A3F501732A
:102CB4001B681B69F821C7F87411D7F8741191FACD
:102CC400A1F1C7F87011D7F87011B1FA81F1C9B246
:102CD4008B40924913430B60F1E007F50273A3F5AF
:102CE40001731B68DB68002B00F083800123C7F8A5
:102CF4006C31D7F86C3193FAA3F3C7F86831D7F87D
:102D04006831B3FA83F3DBB203F1845303F584131C
:102D14009B001A4601231360FEF7D6F8C7F8000299
:102D24000AE0FEF7D1F80246D7F80032D31A022B94
:102D340002D9032300F0E9BD0223C7F86431D7F8B0
:102D4400643193FAA3F3C7F86031D7F86031B3FA6A
:102D540083F3DBB23F2B02D8704B1B6813E00223D2
:102D6400C7F85C31D7F85C3193FAA3F3C7F858314C
:102D74000223C7F85431D7F8543193FAA3F3C7F8B0
:102D84005031664B5B6A0222C7F84C21D7F84C21BC
:102D940092FAA2F2C7F84821D7F84821B2FA82F28F
:102DA400D2B242F02002D2B202F01F02012101FA93
:102DB40002F21340002BB4D0584B1B6823F0F802E6
:102DC40007F50273A3F501731B681B69F821C7F8A3
:102DD4004411D7F8441191FAA1F1C7F84011D7F87A
:102DE4004011B1FA81F1C9B28B404C4913430B60D5
:102DF40065E00123C7F83C31D7F83C3193FAA3F3DB
:102E0400C7F83831D7F83831B3FA83F3DBB203F1BA
:102E1400845303F584139B001A4600231360FEF7C2
:102E240053F8C7F800020AE0FEF74EF80246D7F856
:102E34000032D31A022B02D9032300F066BD022309
:102E4400C7F83431D7F8343193FAA3F3C7F83031E3
:102E5400D7F83031B3FA83F3DBB23F2B02D82F4BD0
:102E64001B6813E00223C7F82C31D7F82C3193FAEE
:102E7400A3F3C7F828310223C7F82431D7F8243143
:102E840093FAA3F3C7F82031244B5B6A0222C7F8F4
:102E94001C21D7F81C2192FAA2F2C7F81821D7F8FE
:102EA4001821B2FA82F2D2B242F02002D2B202F077
:102EB4001F02012101FA02F21340002BB4D107F5DD
:102EC4000273A3F501731B681B6803F00803002B4E
:102ED40000F0198107F50273A3F501731B685B69A0
:102EE400002B00F082800123C7F81431D7F8143185
:102EF40093FAA3F3C7F81031D7F81031B3FA83F378
:102F0400DBB21A46064B13449B001A460123136096
:102F1400FDF7DAFFC7F800020FE000BF001002401F
:102F240020819010FDF7D0FF0246D7F80032D31A63
:102F3400022B02D9032300F0E8BC0223C7F80C31AA
:102F4400D7F80C3193FAA3F207F50273A3F5807353
:102F54001A6007F50273A3F5827302221A6007F55B
:102F64000273A3F582731B6893FAA3F207F5027345
:102F7400A3F584731A6007F50273A3F5867302221E
:102F84001A6007F50273A3F586731B6893FAA3F21C
:102F940007F50273A3F588731A60B04B5A6A07F5F4
:102FA4000273A3F58A730221196007F50273A3F56E
:102FB4008A731B6893FAA3F107F50273A3F58C7364
:102FC400196007F50273A3F58C731B68B3FA83F3D6
:102FD400DBB243F06003DBB203F01F03012101FA0B
:102FE40003F31340002B9DD08DE007F50273A3F586
:102FF4008E7301221A6007F50273A3F58E731B68A2
:1030040093FAA3F207F50273A3F590731A6007F518
:103014000273A3F590731B68B3FA83F3DBB21A4609
:103024008F4B13449B001A4600231360FDF74CFF9B
:10303400C7F800020AE0FDF747FF0246D7F800325E
:10304400D31A022B02D9032300F05FBC07F50273E5
:10305400A3F5927302221A6007F50273A3F5927323
:103064001B6893FAA3F207F50273A3F594731A602D
:1030740007F50273A3F5967302221A6007F502732B
:10308400A3F596731B6893FAA3F207F50273A3F5ED
:1030940098731A6007F50273A3F59A7302221A60F3
:1030A40007F50273A3F59A731B6893FAA3F207F565
:1030B4000273A3F59C731A60684B5A6A07F502738E
:1030C400A3F59E730221196007F50273A3F59E739D
:1030D4001B6893FAA3F107F50273A3F5A0731960B3
:1030E40007F50273A3F5A0731B68B3FA83F3DBB28D
:1030F40043F06003DBB203F01F03012101FA03F381
:103104001340002B97D107F50273A3F501731B68D5
:103114001B6803F00403002B00F09C81002387F854
:1031240007324E4BDB6903F08053002B16D14B4B17
:10313400DB694A4A43F08053D361484BDB6903F0AF
:10314400805207F50273A3F5FE731A6007F5027344
:10315400A3F5FE731B68012387F80732414B1B68F4
:1031640003F48073002B1AD13E4B1B683D4A43F491
:1031740080731360FDF7A8FEC7F8000209E0FDF7AD
:10318400A3FE0246D7F80032D31A642B01D90323D5
:10319400BBE3344B1B6803F48073002BEFD007F5BB
:1031A4000273A3F501731B689B68012B06D12B4B9B
:1031B4001B6A2A4A43F00103136235E007F50273E0
:1031C400A3F501731B689B68002B0CD1234B1B6A6E
:1031D400224A23F001031362204B1B6A1F4A23F087
:1031E4000403136220E007F50273A3F501731B685F
:1031F4009B68052B0CD1194B1B6A184A43F0040336
:103204001362164B1B6A154A43F0010313620BE069
:10321400124B1B6A114A23F0010313620F4B1B6A02
:103224000E4A23F00403136207F50273A3F5017336
:103234001B689B68002B00F08580FDF745FEC7F8EE
:10324400000211E0FDF740FE0246D7F80032D31A1F
:1032540041F28832934207D9032356E30010024017
:10326400208190100070004007F50273A3F5A2734B
:1032740002221A6007F50273A3F5A2731B6893FA7E
:10328400A3F207F50273A3F5A4731A6007F502739A
:10329400A3F5A67302221A6007F50273A3F5A673B9
:1032A4001B6893FAA3F207F50273A3F5A8731A60D7
:1032B40007F50273A3F5A8731B68B3FA83F3DBB2B3
:1032C40023F05F03DBB2002B02D1984B1B6A13E09F
:1032D40007F50273A3F5AA7302221A6007F50273B5
:1032E400A3F5AA731B6893FAA3F207F50273A3F577
:1032F400AC731A608D4B5B6A07F50272A2F5AE726D
:103304000221116007F50272A2F5AE72126892FAF8
:10331400A2F107F50272A2F5B072116007F502720C
:10332400A2F5B0721268B2FA82F2D2B242F040024E
:10333400D2B202F01F02012101FA02F21340002B63
:1033440080D07DE0FDF7C0FDC7F800020BE0FDF77B
:10335400BBFD0246D7F80032D31A41F288329342B9
:1033640001D90323D1E207F50273A3F5B273022254
:103374001A6007F50273A3F5B2731B6893FAA3F2FC
:1033840007F50273A3F5B4731A6007F50273A3F586
:10339400B67302221A6007F50273A3F5B6731B68AD
:1033A40093FAA3F207F50273A3F5B8731A6007F54D
:1033B4000273A3F5B8731B68B3FA83F3DBB223F08B
:1033C4005F03DBB2002B02D1584B1B6A13E007F5F5
:1033D4000273A3F5BA7302221A6007F50273A3F508
:1033E400BA731B6893FAA3F207F50273A3F5BC73CF
:1033F4001A604E4B5B6A07F50272A2F5BE72022197
:10340400116007F50272A2F5BE72126892FAA2F177
:1034140007F50272A2F5C072116007F50272A2F5F7
:10342400C0721268B2FA82F2D2B242F04002D2B250
:1034340002F01F02012101FA02F21340002B86D18F
:1034440097F80732012B05D1384BDB69374A23F053
:103454008053D36107F50273A3F501731B689B695D
:10346400002B00F05182314B5B6803F00C03082BF6
:1034740000F00F8207F50273A3F501731B689B69C3
:10348400022B40F0658107F50273A3F5C2734FF078
:1034940080721A6007F50273A3F5C2731B6893FA6E
:1034A400A3F207F50273A3F5C4731A6007F5027358
:1034B400A3F5C4731B68B3FA83F3DBB203F184533B
:1034C40003F584139B001A4600231360FDF7FCFCEC
:1034D400C7F8000209E0FDF7F7FC0246D7F800320E
:1034E400D31A022B01D903230FE207F50273A3F5C4
:1034F400C6734FF000721A6007F50273A3F5C67322
:103504001B6893FAA3F207F50273A3F5C8731A6054
:1035140007F50273A3F5C8731B68B3FA83F3DBB230
:103524003F2B05D8014B1B682AE000BF0010024066
:1035340007F50273A3F5CA734FF000721A6007F51A
:103544000273A3F5CA731B6893FAA3F207F5027317
:10355400A3F5CC731A6007F50273A3F5CE734FF08D
:1035640000721A6007F50273A3F5CE731B6893FA11
:10357400A3F207F50273A3F5D0731A60CA4B5B6A12
:1035840007F50272A2F5D2724FF00071116007F5CF
:103594000272A2F5D272126892FAA2F107F50272CF
:1035A400A2F5D472116007F50272A2F5D472126802
:1035B400B2FA82F2D2B242F02002D2B202F01F0278
:1035C400012101FA02F21340002B84D1B64BDB6ACD
:1035D40023F00F0207F50273A3F501731B685B6AFE
:1035E400B1491343CB62B04B5B6823F4761207F501
:1035F4000273A3F501731B68196A07F50273A3F537
:1036040001731B68DB690B43A74913434B6007F540
:103614000273A3F5D6734FF080721A6007F5027334
:10362400A3F5D6731B6893FAA3F207F50273A3F507
:10363400D8731A6007F50273A3F5D8731B68B3FA3D
:1036440083F3DBB203F1845303F584139B001A461E
:1036540001231360FDF738FCC7F8000209E0FDF709
:1036640033FC0246D7F80032D31A022B01D90323C4
:103674004BE107F50273A3F5DA734FF000721A6099
:1036840007F50273A3F5DA731B6893FAA3F207F53F
:103694000273A3F5DC731A6007F50273A3F5DC73F8
:1036A4001B68B3FA83F3DBB23F2B02D87E4B1B6853
:1036B40027E007F50273A3F5DE734FF000721A607A
:1036C40007F50273A3F5DE731B6893FAA3F207F5FB
:1036D4000273A3F5E0731A6007F50273A3F5E273AE
:1036E4004FF000721A6007F50273A3F5E2731B68CA
:1036F40093FAA3F207F50273A3F5E4731A606A4B15
:103704005B6A07F50272A2F5E6724FF00071116070
:1037140007F50272A2F5E672126892FAA2F107F5B1
:103724000272A2F5E872116007F50272A2F5E8725E
:103734001268B2FA82F2D2B242F02002D2B202F09D
:103744001F02012101FA02F21340002B87D0DBE0B3
:1037540007F50273A3F5EA734FF080721A6007F558
:103764000273A3F5EA731B6893FAA3F207F50273D5
:10377400A3F5EC731A6007F50273A3F5EC731B68E9
:10378400B3FA83F3DBB203F1845303F584139B0090
:103794001A4600231360FDF797FBC7F8000209E0FF
:1037A400FDF792FB0246D7F80032D31A022B01D957
:1037B4000323AAE007F50273A3F5EE734FF000723A
:1037C4001A6007F50273A3F5EE731B6893FAA3F26C
:1037D40007F50273A3F5F0731A6007F50273A3F5F6
:1037E400F0731B68B3FA83F3DBB23F2B02D82E4B82
:1037F4001B6827E007F50273A3F5F2734FF000721C
:103804001A6007F50273A3F5F2731B6893FAA3F227
:1038140007F50273A3F5F4731A6007F50273A3F5B1
:10382400F6734FF000721A6007F50273A3F5F6738E
:103834001B6893FAA3F207F50273A3F5F8731A60F1
:10384400194B5B6A07F50272A2F5FA724FF0007128
:10385400116007F50272A2F5FA72126892FAA2F1E7
:1038640007F50272A2F5FC72116007F50272A2F567
:10387400FC721268B2FA82F2D2B242F02002D2B2E0
:1038840002F01F02012101FA02F21340002B87D13A
:103894003AE007F50273A3F501731B689B69012BDA
:1038A40004D1012331E000BF00100240194B5B68D2
:1038B400C7F8FC31174BDB6AC7F8F831D7F8FC318D
:1038C40003F4C03207F50273A3F501731B68DB69C7
:1038D4009A4217D1D7F8FC3103F4701207F502733A
:1038E400A3F501731B681B6A9A420BD1D7F8F83110
:1038F40003F00F0207F50273A3F501731B685B6AFB
:103904009A4201D0012300E00023184607F502770C
:10391400BD4680BD0010024080B59EB000AF786007
:10392400396000237B677B68002B01D1012354E1BC
:10393400894B1B6803F007033A689A4210D9864BF7
:103944001B6823F0070284493B6813430B60824BD6
:103954001B6803F007033A689A4201D001233CE153
:103964007B681B6803F00203002B08D07B4B5B6869
:1039740023F0F0027B689B68784913434B607B68B3
:103984001B6803F00103002B00F0CD807B685B68AB
:10399400012B37D14FF40033FB66FB6E93FAA3F38C
:1039A4003B673B6FB3FA83F3DBB23F2B02D86B4B1D
:1039B4001B680FE04FF40033BB66BB6E93FAA3F3AE
:1039C4007B664FF400333B663B6E93FAA3F3FB65CF
:1039D400624B5B6A4FF40032BA65BA6D92FAA2F296
:1039E4007A657A6DB2FA82F2D2B242F02002D2B291
:1039F40002F01F02012101FA02F21340002B71D1DF
:103A04000123EAE07B685B68022B37D14FF0007337
:103A14003B653B6D93FAA3F3FB64FB6CB3FA83F34E
:103A2400DBB23F2B02D84D4B1B680FE04FF0007305
:103A3400BB64BB6C93FAA3F37B644FF000733B64E9
:103A44003B6C93FAA3F3FB63444B5B6A4FF0007245
:103A5400BA63BA6B92FAA2F27A637A6BB2FA82F21E
:103A6400D2B242F02002D2B202F01F02012101FAC6
:103A740002F21340002B35D10123AEE002233B6355
:103A84003B6B93FAA3F3FB62FB6AB3FA83F3DBB2F7
:103A94003F2B02D8314B1B680DE00223BB62BB6A8B
:103AA40093FAA3F37B6202233B623B6A93FAA3F388
:103AB400FB612A4B5B6A0222BA61BA6992FAA2F2EA
:103AC4007A617A69B2FA82F2D2B242F02002D2B2B8
:103AD40002F01F02012101FA02F21340002B01D16E
:103AE40001237AE01D4B5B6823F003027B685B686B
:103AF4001A4913434B60FDF7E7F978670AE0FDF7CD
:103B0400E3F902467B6FD31A41F28832934201D91A
:103B1400032362E0114B5B6803F00C027B685B6873
:103B24009B009A42EBD10C4B1B6803F007033A68E5
:103B34009A4215D2084B1B6823F0070206493B68DA
:103B440013430B60044B1B6803F007033A689A4263
:103B540006D0012341E000BF0020024000100240D3
:103B64007B681B6803F00403002B08D01D4B5B68C3
:103B740023F4E0627B68DB681A4913434B607B687B
:103B84001B6803F00803002B09D0164B5B6823F471
:103B940060527B681B69DB00124913434B6000F0E1
:103BA40029F801460F4B5B6803F0F003F0223A61F9
:103BB4003A6992FAA2F2FA60FA68B2FA82F2D2B2DE
:103BC400D340094AD35C21FA03F3084A1360084B33
:103BD4001B681846FDF734F9002318467837BD46AC
:103BE40080BD00BF00100240445A000804000020B9
:103BF4000800002080B487B000AF0023FB600023DE
:103C0400BB6000237B6100237B6000233B611F4B6F
:103C14005B68FB60FB6803F00C03042B02D0082BE9
:103C240003D029E01A4B3B6129E0FB689B0C03F0AD
:103C34000F03184AD35C7B60144BDB6A03F00F0359
:103C4400154AD35CBB60FB6803F48033002B08D0B7
:103C54000F4ABB68B2FBF3F27B6802FB03F37B61A0
:103C640007E00B4ABB68B2FBF3F27B6802FB03F389
:103C74007B617B693B6102E0054B3B6100BF3B69B3
:103C840018461C37BD465DF8047B7047001002409F
:103C940000127A005C5A00086C5A000880B400AF25
:103CA400034B1B681846BD465DF8047B704700BF94
:103CB4000400002080B582B000AFFFF7EFFF01469B
:103CC4000B4B5B6803F4E0634FF4E0627A607A685C
:103CD40092FAA2F23A603A68B2FA82F2D2B2D340CD
:103CE400044AD35C21FA03F318460837BD4680BD65
:103CF40000100240545A000880B582B000AFFFF7AC
:103D0400CDFF01460B4B5B6803F460534FF46052E4
:103D14007A607A6892FAA2F23A603A68B2FA82F267
:103D2400D2B2D340044AD35C21FA03F318460837CD
:103D3400BD4680BD00100240545A000880B592B0C0
:103D440000AF786000233B640023FB63002387F803
:103D540047307B681B6803F48033002B00F0D2806B
:103D64004D4BDB6903F08053002B0ED14A4BDB69CA
:103D7400494A43F08053D361474BDB6903F08053D6
:103D8400BB60BB68012387F84730444B1B6803F4CE
:103D94008073002B18D1414B1B68404A43F4807355
:103DA4001360FDF791F8386408E0FDF78DF80246DA
:103DB4003B6CD31A642B01D90323D4E1374B1B6822
:103DC40003F48073002BF0D0334B1B6A03F440736D
:103DD400FB63FB6B002B00F082807B685B6803F461
:103DE4004073FA6B9A427AD02B4B1B6A23F44073CC
:103DF400FB634FF480333B633B6B93FAA3F3FB62A7
:103E0400FB6AB3FA83F3DBB21A46254B13449B00D7
:103E14001A46012313604FF48033BB63BB6B93FAE0
:103E2400A3F37B637B6BB3FA83F3DBB21A461C4BBD
:103E340013449B001A4600231360174AFB6B13625A
:103E4400FB6B03F00103002B49D0FDF73DF8386408
:103E54000AE0FDF739F802463B6CD31A41F2883286
:103E6400934201D903237EE10223BB62BB6A93FA26
:103E7400A3F37B6202233B623B6A93FAA3F3FB61E5
:103E8400FB69B3FA83F3DBB223F05F03DBB2002BED
:103E940008D1014B1B6A0DE0001002400070004085
:103EA400008190100223BB61BB6993FAA3F37B6189
:103EB4009A4B5B6A02223A613A6992FAA2F2FA6078
:103EC400FA68B2FA82F2D2B242F04002D2B202F0FE
:103ED4001F02012101FA02F21340002BB9D08F4BCB
:103EE4001B6A23F440727B685B688C4913430B6242
:103EF40097F84730012B05D1884BDB69874A23F0BB
:103F04008053D3617B681B6803F00103002B08D046
:103F1400824B1B6B23F003027B689B687F4913432E
:103F24000B637B681B6803F00203002B08D07B4BF8
:103F34001B6B23F440327B68DB68784913430B63C3
:103F44007B681B6803F00403002B08D0734B1B6BC6
:103F540023F440227B681B69704913430B637B681D
:103F64001B6803F02003002B08D06C4B1B6B23F061
:103F740010027B68DB69694913430B637B681B6828
:103F840003F40033002B08D0644B5B6823F48002F5
:103F94007B685B6D614913434B607B681B6803F06E
:103FA4004003002B08D05D4B1B6B23F020027B6881
:103FB4001B6A5A4913430B637B681B6803F4802311
:103FC400002B08D0554B1B6B23F040027B685B6AC7
:103FD400524913430B637B681B6803F00803002BEF
:103FE40008D04E4B1B6B23F440127B685B694B4932
:103FF40013430B637B681B6803F01003002B08D08A
:10400400464B1B6B23F440027B689B694349134373
:104014000B637B681B6803F40073002B08D03F4BD1
:104024005B6823F400027B681B6B3C4913434B60C1
:104034007B681B6803F08003002B08D0374BDB6AD6
:1040440023F4F8727B689B6A34491343CB627B6820
:104054001B6803F48073002B08D0304BDB6A23F415
:1040640078527B68DB6A2D491343CB627B681B68FB
:1040740003F48053002B08D0284B1B6B23F480726D
:104084007B685B6B254913430B637B681B6803F4F4
:104094000053002B08D0214B1B6B23F400727B6868
:1040A4001B6C1E4913430B637B681B6803F480136A
:1040B400002B08D0194B1B6B23F080727B689B6B21
:1040C400164913430B637B681B6803F40013002B2E
:1040D40008D0124B1B6B23F000727B68DB6B0F491B
:1040E40013430B637B681B6803F48003002B08D025
:1040F4000A4B1B6B23F480627B685B6C0749134398
:104104000B637B681B6803F40003002B0CD0034B88
:104114001B6B23F400627B6802E000BF00100240C6
:104124009B6C134913430B637B681B6803F0807318
:10413400002B08D00E4B1B6B23F400527B68DB6C06
:104144000B4913430B637B681B6803F00073002B5C
:1041540008D0074B1B6B23F400427B681B6D04499A
:1041640013430B63002318464837BD4680BD00BF88
:104174000010024080B582B000AF78607B68002BED
:1041840001D1012349E07B6893F83D30DBB2002B79
:1041940006D17B68002283F83C207868FCF736FD62
:1041A4007B68022283F83D207B681A687B680433AD
:1041B4001946104600F09AFA7B68012283F84820D9
:1041C4007B68012283F83E207B68012283F83F202C
:1041D4007B68012283F840207B68012283F8412018
:1041E4007B68012283F842207B68012283F8432004
:1041F4007B68012283F844207B68012283F84520F0
:104204007B68012283F846207B68012283F84720DB
:104214007B68012283F83D20002318460837BD46F9
:1042240080BD000080B485B000AF78607B6893F8EF
:104234003D30DBB2012B01D001234FE07B68022229
:1042440083F83D207B681B68DA687B681B6842F052
:104254000102DA607B681B68234A93421DD07B68A5
:104264001B68B3F1804F18D07B681B681F4A9342C8
:1042740013D07B681B681E4A93420ED07B681B6870
:104284001C4A934209D07B681B681B4A934204D0A2
:104294007B681B68194A934215D17B681B689A682E
:1042A400174B1340FB60FB68062B15D0FB68B3F576
:1042B400803F11D07B681B681A687B681B6842F0DA
:1042C40001021A6008E07B681B681A687B681B6837
:1042D40042F001021A6000E000BF002318461437C0
:1042E400BD465DF8047B7047002C0140000400408B
:1042F40000080040003401400040014000500140EB
:104304000700010080B584B000AF78607B681B684B
:10431400DB68FB607B681B681B69BB60BB6803F0E0
:104324000203002B20D0FB6803F00203002B1BD0F8
:104334007B681B686FF002021A617B6801221A779E
:104344007B681B689B6903F00303002B03D0786828
:1043540000F0ADF905E0786800F09FF9786800F0A6
:10436400B0F97B6800221A77BB6803F00403002BC2
:1043740020D0FB6803F00403002B1BD07B681B6870
:104384006FF004021A617B6802221A777B681B684B
:104394009B6903F44073002B03D0786800F087F91D
:1043A40005E0786800F079F9786800F08AF97B68AC
:1043B40000221A77BB6803F00803002B20D0FB68A7
:1043C40003F00803002B1BD07B681B686FF0080206
:1043D4001A617B6804221A777B681B68DB6903F027
:1043E4000303002B03D0786800F061F905E07868D6
:1043F40000F053F9786800F064F97B6800221A77BA
:10440400BB6803F01003002B20D0FB6803F01003FB
:10441400002B1BD07B681B686FF010021A617B684D
:1044240008221A777B681B68DB6903F44073002B4E
:1044340003D0786800F03BF905E0786800F02DF9C6
:10444400786800F03EF97B6800221A77BB6803F0B5
:104454000103002B0CD0FB6803F00103002B07D0F1
:104464007B681B686FF001021A617868FBF7B0FE85
:10447400BB6803F08003002B0CD0FB6803F08003BF
:10448400002B07D07B681B686FF080021A61786884
:1044940000F006FBBB6803F48073002B0CD0FB68B0
:1044A40003F08003002B07D07B681B686FF48072D5
:1044B4001A61786800F0FEFABB6803F04003002B31
:1044C4000CD0FB6803F04003002B07D07B681B680B
:1044D4006FF040021A61786800F0FDF8BB6803F0E1
:1044E4002003002B0CD0FB6803F02003002B07D023
:1044F4007B681B686FF020021A61786800F0C6FAC6
:1045040000BF1037BD4680BD80B584B000AF786071
:1045140039600023FB737B6893F83C30012B01D195
:104524000223B6E07B68012283F83C207B680222E8
:1045340083F83D207B681B689B68BB60BB6823F4E1
:10454400803323F07703BB60BB6823F47F43BB60F5
:104554007B681B68BA689A603B681B68B3F5005FA8
:104564003ED0B3F5005F00F28780B3F5805F00F0C2
:104574008680B3F5805F7FD8702B1AD0702B7BD8E0
:10458400602B50D0602B77D8502B3CD0502B73D855
:10459400402B58D0402B6FD8302B64D0302B6BD8A5
:1045A400202B60D0202B67D8002B5CD0102B5AD046
:1045B40062E07B6818683B6899683B685A683B68A6
:1045C400DB6800F0B7F97B681B689B68BB60BB685D
:1045D40043F07703BB607B681B68BA689A604FE05E
:1045E4007B6818683B6899683B685A683B68DB6875
:1045F40000F0A0F97B681B689A687B681B6842F42A
:1046040080429A603CE07B6818683B6859683B6864
:10461400DB681A4600F014F97B681B6850211846C1
:1046240000F06DF92CE07B6818683B6859683B68BA
:10463400DB681A4600F033F97B681B686021184672
:1046440000F05DF91CE07B6818683B6859683B68BA
:10465400DB681A4600F0F4F87B681B6840211846B2
:1046640000F04DF90CE07B681A683B681B6819463A
:10467400104600F044F903E00123FB7300E000BF9F
:104684007B68012283F83D207B68002283F83C206C
:10469400FB7B18461037BD4680BD80B483B000AFA5
:1046A400786000BF0C37BD465DF8047B704780B46A
:1046B40083B000AF786000BF0C37BD465DF8047B63
:1046C400704780B483B000AF786000BF0C37BD463C
:1046D4005DF8047B704780B483B000AF786000BF9E
:1046E4000C37BD465DF8047B7047000080B485B08C
:1046F40000AF786039607B681B68FB607B68484A60
:10470400934213D07B68B3F1804F0FD07B68454A46
:1047140093420BD07B68444A934207D07B68434A58
:10472400934203D07B68424A934208D1FB6823F04A
:104734007003FB603B685B68FA681343FB607B684B
:10474400374A93421FD07B68B3F1804F1BD07B68FC
:10475400344A934217D07B68334A934213D07B6820
:10476400324A93420FD07B68324A93420BD07B6823
:10477400314A934207D07B68304A934203D07B6826
:104784002B4A934208D1FB6823F44073FB603B68D7
:10479400DB68FA681343FB60FB6823F080023B6824
:1047A4005B691343FB607B68FA681A603B689A682C
:1047B4007B68DA623B681A687B689A627B68184A8D
:1047C400934213D07B68194A93420FD07B68194AED
:1047D40093420BD07B68184A934207D07B68174AF0
:1047E400934203D07B68124A934203D13B681A690F
:1047F4007B681A637B6801225A617B681B6903F03A
:104804000103012B05D17B681B6923F001027B683E
:104814001A6100BF1437BD465DF8047B704700BFC2
:10482400002C014000040040000800400034014016
:104834000050014000400140004401400048014054
:1048440080B487B000AFF860B9607A60FB681B6A17
:104854007B61FB681B6A23F00102FB681A62FB6838
:104864009B693B613B6923F0F0033B617B681B015F
:104874003A6913433B617B6923F00A037B617A69DC
:10488400BB6813437B61FB683A699A61FB687A6988
:104894001A6200BF1C37BD465DF8047B704780B4C4
:1048A40087B000AFF860B9607A60FB681B6A7B610F
:1048B400FB681B6A23F01002FB681A62FB689B69A1
:1048C4003B613B6923F470433B617B681B033A699A
:1048D40013433B617B6923F0A0037B61BB681B012D
:1048E4007A6913437B61FB683A699A61FB687A6968
:1048F4001A6200BF1C37BD465DF8047B704780B464
:1049040085B000AF786039607B689B68FB60FB68AA
:1049140023F07003FB603A68FB68134343F007031A
:10492400FB607B68FA689A6000BF1437BD465DF887
:10493400047B704780B487B000AFF860B9607A60D8
:104944003B60FB689B687B617B6923F47F437B61ED
:104954003B681A027B681A43BB6813437A691343A2
:104964007B61FB687A699A6000BF1C37BD465DF8BD
:10497400047B704780B485B000AF786039607B6891
:1049840093F83C30012B01D102236DE07B680122B6
:1049940083F83C207B68022283F83D207B681B68F7
:1049A4005B68FB607B681B689B68BB607B681B68FB
:1049B400304A934209D07B681B682F4A934204D043
:1049C4007B681B682D4A934208D1FB6823F470036B
:1049D400FB603B685B68FA681343FB60FB6823F089
:1049E4007003FB603B681B68FA681343FB607B68D9
:1049F4001B68FA685A607B681B681E4A93421DD084
:104A04007B681B68B3F1804F18D07B681B681C4A15
:104A1400934213D07B681B681A4A93420ED07B687A
:104A24001B68154A934209D07B681B68164A934257
:104A340004D07B681B68114A93420CD1BB6823F0F5
:104A44008003BB603B689B68BA681343BB607B68A8
:104A54001B68BA689A607B68012283F83D207B68F2
:104A6400002283F83C20002318461437BD465DF825
:104A7400047B7047002C0140003401400050014089
:104A840000040040000800400040014080B483B0AE
:104A940000AF786000BF0C37BD465DF8047B7047FB
:104AA40080B483B000AF786000BF0C37BD465DF8BA
:104AB400047B704780B483B000AF786000BF0C37CC
:104AC400BD465DF8047B704780B582B000AF786066
:104AD4007B68002B01D1012340E07B68DB6F002B56
:104AE40006D17B68002283F878207868FCF7C6F842
:104AF4007B682422DA677B681B681A687B681B68FA
:104B040022F001021A607B685B6A002B02D078688D
:104B140000F0F8FC786800F021FB0346012B01D17A
:104B240001231BE07B681B685A687B681B6822F4BE
:104B340090425A607B681B689A687B681B6822F005
:104B44002A029A607B681B681A687B681B6842F0BB
:104B540001021A60786800F077FD034618460837AA
:104B6400BD4680BD80B5BAB000AF78607B681B6875
:104B7400DB69C7F8E4307B681B681B68C7F8E03062
:104B84007B681B689B68C7F8DC30D7F8E42040F6E4
:104B94000F031340C7F8D830D7F8D830002B15D1FD
:104BA400D7F8E43003F02003002B0FD0D7F8E0301F
:104BB40003F02003002B09D07B689B6E002B00F0D0
:104BC400AB827B689B6E78689847A5E2D7F8D830AB
:104BD400002B00F01781D7F8DC3003F00103002B21
:104BE40006D1D7F8E020854B1340002B00F00A8152
:104BF400D7F8E43003F00103002B11D0D7F8E030EC
:104C040003F48073002B0BD07B681B6801221A62AB
:104C14007B68D3F8843043F001027B68C3F88420B6
:104C2400D7F8E43003F00203002B11D0D7F8DC30BE
:104C340003F00103002B0BD07B681B6802221A626D
:104C44007B68D3F8843043F004027B68C3F8842083
:104C5400D7F8E43003F00403002B11D0D7F8DC308C
:104C640003F00103002B0BD07B681B6804221A623B
:104C74007B68D3F8843043F002027B68C3F8842055
:104C8400D7F8E43003F00803002B17D0D7F8E0304E
:104C940003F02003002B05D1D7F8DC3003F0010327
:104CA400002B0BD07B681B6808221A627B68D3F840
:104CB400843043F008027B68C3F88420D7F8E430DA
:104CC40003F40063002B12D0D7F8E03003F08063C4
:104CD400002B0CD07B681B684FF400621A627B685F
:104CE400D3F8843043F020027B68C3F884207B68C7
:104CF400D3F88430002B00F01182D7F8E43003F0AD
:104D04002003002B0DD0D7F8E03003F02003002B54
:104D140007D07B689B6E002B03D07B689B6E786802
:104D240098477B68D3F88430C7F8D4307B681B6815
:104D34009B6803F04003402B05D0D7F8D43003F030
:104D44002803002B4FD0786800F093FD7B681B6824
:104D54009B6803F04003402B41D17B681B680833F8
:104D6400C7F89C30D7F89C3053E8003FC7F8983018
:104D7400D7F8983023F04003C7F8D0307B681B681D
:104D84000833D7F8D020C7F8A820C7F8A430D7F83C
:104D9400A410D7F8A82041E80023C7F8A030D7F81A
:104DA400A030002BD9D17B685B6F002B13D07B68BC
:104DB4005B6F134A5A637B685B6F1846FDF7A8FB69
:104DC4000346002B17D07B685B6F5B6B7A68526F6E
:104DD400104698470FE0786800F0AAF90BE078686D
:104DE40000F0A6F907E0786800F0A2F97B680022D9
:104DF400C3F8842092E100BF90E100BF20010004C9
:104E04003F5900087B681B6E012B40F04B81D7F89B
:104E1400E43003F01003002B00F04481D7F8E030B5
:104E240003F01003002B00F03D817B681B68102207
:104E34001A627B681B689B6803F04003402B40F0B8
:104E4400B5807B685B6F1B685B68A7F8BE30B7F8FA
:104E5400BE30002B00F064817B68B3F85830B7F89B
:104E6400BE209A4280F05C817B68B7F8BE20A3F82C
:104E74005A207B685B6F9B69202B00F086807B68DF
:104E84001B68C7F88830D7F8883053E8003FC7F864
:104E94008430D7F8843023F48073C7F8B8307B6843
:104EA4001B681A46D7F8B830C7F89430C7F8902072
:104EB400D7F89010D7F8942041E80023C7F88C3035
:104EC400D7F88C30002BDAD17B681B6808337B67FA
:104ED4007B6F53E8003F3B673B6F23F00103C7F848
:104EE400B4307B681B680833D7F8B420C7F8802037
:104EF400FB67F96FD7F8802041E80023BB67BB6FDD
:104F0400002BE1D17B681B6808333B663B6E53E89A
:104F1400003FFB65FB6D23F04003C7F8B0307B68AE
:104F24001B680833D7F8B020FA66BB66B96EFA6E10
:104F340041E800237B667B6E002BE3D17B68202253
:104F4400C3F880207B6800221A667B681B68FB64B8
:104F5400FB6C53E8003FBB64BB6C23F01003C7F841
:104F6400AC307B681B681A46D7F8AC30BB657A65F1
:104F7400796DBA6D41E800233B653B6D002BE4D1AC
:104F84007B685B6F1846FDF785FA7B6802225A66D8
:104F94007B68B3F858207B68B3F85A309BB2D31AB5
:104FA4009BB21946786800F0CDF8B9E07B68B3F895
:104FB40058207B68B3F85A309BB2D31AA7F8CE3086
:104FC4007B68B3F85A309BB2002B00F0AB80B7F883
:104FD400CE30002B00F0A6807B681B68BB63BB6BE4
:104FE40053E8003F7B637B6B23F49073C7F8C830AE
:104FF4007B681B681A46D7F8C8307B643A64396CFE
:105004007A6C41E80023FB63FB6B002BE4D17B68E3
:105014001B6808337B627B6A53E8003F3B623B6A50
:1050240023F00103C7F8C4307B681B680833D7F842
:10503400C4203A63FB62F96A3A6B41E80023BB621D
:10504400BB6A002BE3D17B682022C3F880207B68F5
:1050540000221A667B6800229A667B681B683B61A3
:105064003B6953E8003FFB60FB6823F01003C7F87B
:10507400C0307B681B681A46D7F8C030FB61BA6140
:10508400B969FA6941E800237B617B69002BE4D1AB
:105094007B6802225A66B7F8CE301946786800F069
:1050A40051F83FE0D7F8E43003F48013002B0ED01E
:1050B400D7F8DC3003F48003002B08D07B681B682E
:1050C4004FF480121A62786800F077FC2DE0D7F86C
:1050D400E43003F08003002B0ED0D7F8E03003F067
:1050E4008003002B08D07B68DB6E002B1CD07B6810
:1050F400DB6E7868984717E0D7F8E43003F0400394
:10510400002B12D0D7F8E03003F04003002B0CD072
:10511400786800F028FC08E000BF06E000BF04E067
:1051240000BF02E000BF00E000BFE837BD4680BD1D
:1051340080B483B000AF786000BF0C37BD465DF823
:10514400047B704780B483B000AF78600B467B80EB
:1051540000BF0C37BD465DF8047B704780B588B04E
:1051640000AF78600023BB777B689A687B681B6913
:105174001A437B685B691A437B68DB6913437B6171
:105184007B681B681A68924B13407A6812687969C5
:105194000B4313607B681B685B6823F440517B6896
:1051A400DA687B681B680A435A607B689B697B6189
:1051B4007B681B6A7A6913437B617B681B689B6805
:1051C40023F430617B681B687A690A439A607B68C0
:1051D4001B68804A934220D17F4B1B6B03F003036F
:1051E400032B17D801A252F823F000BF0152000884
:1051F4000D52000813520008075200080123FB77E0
:10520400B5E00223FB77B2E00423FB77AFE0082389
:10521400FB77ACE01023FB77A9E07B681B686F4A3F
:10522400934224D16C4B1B6B03F44033B3F5403FE2
:1052340011D0B3F5403F17D8B3F5003F11D0B3F503
:10524400003F11D8002B03D0B3F5803F06D00BE00C
:105254000023FB778BE00223FB7788E00423FB77B2
:1052640085E00823FB7782E01023FB777FE07B68EF
:105274001B685B4A934224D1574B1B6B03F44023B6
:10528400B3F5402F11D0B3F5402F17D8B3F5002F45
:1052940011D0B3F5002F11D8002B03D0B3F5802F14
:1052A40006D00BE00023FB7761E00223FB775EE08E
:1052B4000423FB775BE00823FB7758E01023FB779C
:1052C40055E07B681B68474A934224D1424B1B6BD1
:1052D40003F44013B3F5401F11D0B3F5401F17D8A2
:1052E400B3F5001F11D0B3F5001F11D8002B03D064
:1052F400B3F5801F06D00BE00023FB7737E00223D1
:10530400FB7734E00423FB7731E00823FB772EE0BE
:105314001023FB772BE07B681B68334A934224D12C
:105324002D4B1B6B03F44003B3F5400F11D0B3F5C1
:10533400400F17D8B3F5000F11D0B3F5000F11D8F3
:10534400002B03D0B3F5800F06D00BE00023FB77CE
:105354000DE00223FB770AE00423FB7707E0082330
:10536400FB7704E01023FB7701E01023FB777B68D5
:10537400DB69B3F5004F6BD1FB7F082B38D801A252
:1053840052F823F0AD530008B5530008BD5300088C
:10539400F5530008C3530008F5530008F5530008FB
:1053A400F5530008CB530008FEF784FCB86124E0F1
:1053B400FEF7A2FCB86120E00C4BBB611DE0FEF7D8
:1053C40019FCB86119E04FF40043BB6115E000BF5C
:1053D400F369FFEF00380140001002400044004030
:1053E40000480040004C00400050004000127A0089
:1053F4000023BB610123BB7700BFBB69002B73D0C3
:10540400BB695A007B685B685B081A447B685B680D
:10541400B2FBF3F33B613B690F2B16D93B69B3F540
:10542400803F12D23B699BB223F00F03FB813B699F
:105434005B089BB203F007039AB2FB891343FB8119
:105444007B681B68FA89DA604EE00123BB774BE086
:10545400FB7F082B27D801A252F823F085540008BB
:105464008D54000895540008AB5400089B54000860
:10547400AB540008AB540008AB540008A354000814
:10548400FEF718FCB86113E0FEF736FCB8610FE0D4
:105494001B4BBB610CE0FEF7ADFBB86108E04FF4B9
:1054A4000043BB6104E00023BB610123BB7700BF61
:1054B400BB69002B18D07B685B685A08BB691A4427
:1054C4007B685B68B2FBF3F33B613B690F2B09D943
:1054D4003B69B3F5803F05D23B699AB27B681B6890
:1054E400DA6001E00123BB777B6800229A667B685F
:1054F4000022DA66BB7F18462037BD4680BD00BF58
:1055040000127A0080B483B000AF78607B685B6A75
:1055140003F00803002B0AD07B681B685B6823F444
:1055240000417B685A6B7B681B680A435A607B683E
:105534005B6A03F00103002B0AD07B681B685B687D
:1055440023F400317B689A6A7B681B680A435A60BB
:105554007B685B6A03F00203002B0AD07B681B683C
:105564005B6823F480317B68DA6A7B681B680A43D2
:105574005A607B685B6A03F00403002B0AD07B68E3
:105584001B685B6823F480217B681A6B7B681B684B
:105594000A435A607B685B6A03F01003002B0AD04D
:1055A4007B681B689B6823F480517B689A6B7B68DB
:1055B4001B680A439A607B685B6A03F02003002B34
:1055C4000AD07B681B689B6823F400517B68DA6B04
:1055D4007B681B680A439A607B685B6A03F040033C
:1055E400002B1AD07B681B685B6823F480117B68EE
:1055F4001A6C7B681B680A435A607B681B6CB3F5A2
:10560400801F0AD17B681B685B6823F4C0017B6838
:105614005A6C7B681B680A435A607B685B6A03F0B8
:105624008003002B0AD07B681B685B6823F400218D
:105634007B689A6C7B681B680A435A6000BF0C370E
:10564400BD465DF8047B704780B598B002AF7860C2
:105654007B680022C3F88420FBF736FC78657B68FE
:105664001B681B6803F00803082B2ED16FF07E43E0
:1056740000937B6D00224FF40011786800F08CF8E1
:105684000346002B21D07B681B68BB63BB6B53E8CC
:10569400003F7B637B6B23F080033B657B681B6867
:1056A4001A463B6D7B643A64396C7A6C41E800239A
:1056B400FB63FB6B002BE6D17B682022DA677B68F7
:1056C400002283F87820032362E07B681B681B6850
:1056D40003F00403042B49D16FF07E4300937B6DE8
:1056E40000224FF48001786800F056F80346002B3E
:1056F4003CD07B681B687B627B6A53E8003F3B625B
:105704003B6A23F49073FB647B681B681A46FB6C4A
:105714003B63FA62F96A3A6B41E80023BB62BB6AF5
:10572400002BE6D17B681B6808333B613B6953E877
:10573400003FFB60FB6823F00103BB647B681B68CC
:105744000833BA6CFA61BB61B969FA6941E80023AC
:105754007B617B69002BE5D17B682022C3F8802024
:105764007B68002283F87820032311E07B682022E1
:10577400DA677B682022C3F880207B6800221A66DF
:105784007B6800225A667B68002283F87820002315
:1057940018465837BD4680BD80B584B000AFF86068
:1057A400B9603B601346FB714FE0BB69B3F1FF3F47
:1057B4004BD0FBF789FB02463B68D31ABA699A427D
:1057C40002D3BB69002B01D103234EE0FB681B68A5
:1057D4001B6803F00403002B37D0BB68802B34D044
:1057E400BB68402B31D0FB681B68DB6903F00803FE
:1057F400082B10D1FB681B6808221A62F86800F0B5
:1058040038F8FB680822C3F88420FB68002283F878
:105814007820012329E0FB681B68DB6903F400633B
:10582400B3F5006F11D1FB681B684FF400621A6274
:10583400F86800F01EF8FB682022C3F88420FB6897
:10584400002283F8782003230FE0FB681B68DA69E1
:10585400BB681340BA689A420CBF01230023DBB231
:105864001A46FB799A42A0D0002318461037BD4649
:1058740080BD80B495B000AF78607B681B687B63A3
:105884007B6B53E8003F3B633B6B23F49073FB64F7
:105894007B681B681A46FB6C3B64FA63F96B3A6CD1
:1058A40041E80023BB63BB6B002BE6D17B681B681C
:1058B40008333B623B6A53E8003FFB61FB6923F01A
:1058C4000103BB647B681B680833BA6CFA62BB6271
:1058D400B96AFA6A41E800237B627B6A002BE5D14E
:1058E4007B681B6E012B18D17B681B68FB60FB680F
:1058F40053E8003FBB60BB6823F010037B647B6804
:105904001B681A467B6CBB617A617969BA6941E8A4
:1059140000233B613B69002BE6D17B682022C3F85E
:1059240080207B6800221A667B6800229A6600BF8A
:105934005437BD465DF8047B704780B584B000AF32
:1059440078607B685B6AFB60FB680022A3F85A20DE
:10595400FB680022A3F85220F868FFF7E9FB00BFB8
:105964001037BD4680BD80B588B000AF78607B68D5
:105974001B68FB60FB6853E8003FBB60BB6823F017
:105984004003FB617B681B681A46FB69BB617A6153
:105994007969BA6941E800233B613B69002BE6D190
:1059A4007B682022DA677B680022DA667868FAF777
:1059B40041FD00BF2037BD4680BD80B483B000AF39
:1059C400786000BF0C37BD465DF8047B7047024425
:1059D4000346934200D1704703F8011BF9E7000026
:1059E40070B50D4D0D4C641BA4100026A64209D1C0
:1059F4000B4D0C4C00F018F8641BA4100026A642B2
:105A040005D170BD55F8043B98470136EEE755F8CB
:105A1400043B98470136F2E77C5A00087C5A000898
:105A24007C5A0008805A0008F8B500BFF8BC08BCCE
:105A34009E467047F8B500BFF8BC08BC9E46704748
:105A4400000000000000000001020304060708092A
:105A5400000000000102030402030405060708090C
:105A64000A0B0C0D0E0F10100102030405060708A3
:085A7400090A0B0C0D0E0F10C6
:045A7C00B901000864
:045A80009501000884
:105A84000100640000127A00100000000100000010
:0400000508000DC51D
:00000001FF
